{
  "_format": "hh-sol-artifact-1",
  "contractName": "TrueDoc",
  "sourceName": "contracts/TrueDoc.sol",
  "abi": [
    {
      "inputs": [
        {
          "internalType": "string",
          "name": "_docHash",
          "type": "string"
        }
      ],
      "name": "registerDocument",
      "outputs": [],
      "stateMutability": "nonpayable",
      "type": "function"
    },
    {
      "inputs": [
        {
          "internalType": "string",
          "name": "_docHash",
          "type": "string"
        }
      ],
      "name": "verifyDocument",
      "outputs": [
        {
          "internalType": "bool",
          "name": "exists",
          "type": "bool"
        },
        {
          "internalType": "address",
          "name": "issuer",
          "type": "address"
        },
        {
          "internalType": "uint256",
          "name": "timestamp",
          "type": "uint256"
        }
      ],
      "stateMutability": "view",
      "type": "function"
    }
  ],
  "bytecode": "0x608060405234801561001057600080fd5b50610614806100206000396000f3fe608060405234801561001057600080fd5b50600436106100365760003560e01c80634847a4701461003b578063beee5eb714610057575b600080fd5b610055600480360381019061005091906103e4565b610089565b005b610071600480360381019061006c91906103e4565b6101c1565b604051610080939291906104a2565b60405180910390f35b600081604051610099919061054a565b908152602001604051809103902060020160009054906101000a900460ff16156100f8576040517f08c379a00000000000000000000000000000000000000000000000000000000081526004016100ef906105be565b60405180910390fd5b60405180606001604052803373ffffffffffffffffffffffffffffffffffffffff1681526020014281526020016001151581525060008260405161013c919061054a565b908152602001604051809103902060008201518160000160006101000a81548173ffffffffffffffffffffffffffffffffffffffff021916908373ffffffffffffffffffffffffffffffffffffffff1602179055506020820151816001015560408201518160020160006101000a81548160ff02191690831515021790555090505050565b6000806000806000856040516101d7919061054a565b90815260200160405180910390206040518060600160405290816000820160009054906101000a900473ffffffffffffffffffffffffffffffffffffffff1673ffffffffffffffffffffffffffffffffffffffff1673ffffffffffffffffffffffffffffffffffffffff168152602001600182015481526020016002820160009054906101000a900460ff1615151515815250509050806040015181600001518260200151935093509350509193909250565b6000604051905090565b600080fd5b600080fd5b600080fd5b600080fd5b6000601f19601f8301169050919050565b7f4e487b7100000000000000000000000000000000000000000000000000000000600052604160045260246000fd5b6102f1826102a8565b810181811067ffffffffffffffff821117156103105761030f6102b9565b5b80604052505050565b600061032361028a565b905061032f82826102e8565b919050565b600067ffffffffffffffff82111561034f5761034e6102b9565b5b610358826102a8565b9050602081019050919050565b82818337600083830152505050565b600061038761038284610334565b610319565b9050828152602081018484840111156103a3576103a26102a3565b5b6103ae848285610365565b509392505050565b600082601f8301126103cb576103ca61029e565b5b81356103db848260208601610374565b91505092915050565b6000602082840312156103fa576103f9610294565b5b600082013567ffffffffffffffff81111561041857610417610299565b5b610424848285016103b6565b91505092915050565b60008115159050919050565b6104428161042d565b82525050565b600073ffffffffffffffffffffffffffffffffffffffff82169050919050565b600061047382610448565b9050919050565b61048381610468565b82525050565b6000819050919050565b61049c81610489565b82525050565b60006060820190506104b76000830186610439565b6104c4602083018561047a565b6104d16040830184610493565b949350505050565b600081519050919050565b600081905092915050565b60005b8381101561050d5780820151818401526020810190506104f2565b60008484015250505050565b6000610524826104d9565b61052e81856104e4565b935061053e8185602086016104ef565b80840191505092915050565b60006105568284610519565b915081905092915050565b600082825260208201905092915050565b7f446f63756d656e7420616c726561647920726567697374657265640000000000600082015250565b60006105a8601b83610561565b91506105b382610572565b602082019050919050565b600060208201905081810360008301526105d78161059b565b905091905056fea2646970667358221220ffaa47ce2bdf9bf6db2a710210e404f64767891204eb07be3f8aa1166ac5b94d64736f6c63430008130033",
  "linkReferences": {},
  "deployedLinkReferences": {}
}